{
  "contractName": "SupplyChain",
  "abi": [
    {
      "inputs": [],
      "payable": false,
      "stateMutability": "nonpayable",
      "type": "constructor"
    },
    {
      "constant": true,
      "inputs": [
        {
          "internalType": "uint256",
          "name": "",
          "type": "uint256"
        }
      ],
      "name": "MedicineStock",
      "outputs": [
        {
          "internalType": "uint256",
          "name": "id",
          "type": "uint256"
        },
        {
          "internalType": "string",
          "name": "name",
          "type": "string"
        },
        {
          "internalType": "string",
          "name": "description",
          "type": "string"
        },
        {
          "internalType": "address",
          "name": "customer",
          "type": "address"
        },
        {
          "internalType": "address",
          "name": "supplier",
          "type": "address"
        },
        {
          "internalType": "address",
          "name": "manufacturer",
          "type": "address"
        },
        {
          "internalType": "address",
          "name": "distributor",
          "type": "address"
        },
        {
          "internalType": "address",
          "name": "retailer",
          "type": "address"
        },
        {
          "internalType": "enum SupplyChain.STAGE",
          "name": "stage",
          "type": "uint8"
        }
      ],
      "payable": false,
      "stateMutability": "view",
      "type": "function"
    },
    {
      "constant": true,
      "inputs": [],
      "name": "Owner",
      "outputs": [
        {
          "internalType": "address",
          "name": "",
          "type": "address"
        }
      ],
      "payable": false,
      "stateMutability": "view",
      "type": "function"
    },
    {
      "constant": true,
      "inputs": [],
      "name": "medicineCtr",
      "outputs": [
        {
          "internalType": "uint256",
          "name": "",
          "type": "uint256"
        }
      ],
      "payable": false,
      "stateMutability": "view",
      "type": "function"
    },
    {
      "constant": true,
      "inputs": [
        {
          "internalType": "address",
          "name": "",
          "type": "address"
        }
      ],
      "name": "roles",
      "outputs": [
        {
          "internalType": "enum SupplyChain.ROLE",
          "name": "",
          "type": "uint8"
        }
      ],
      "payable": false,
      "stateMutability": "view",
      "type": "function"
    },
    {
      "constant": false,
      "inputs": [
        {
          "internalType": "uint256",
          "name": "_role",
          "type": "uint256"
        }
      ],
      "name": "registerRole",
      "outputs": [],
      "payable": false,
      "stateMutability": "nonpayable",
      "type": "function"
    },
    {
      "constant": false,
      "inputs": [
        {
          "internalType": "string",
          "name": "_name",
          "type": "string"
        },
        {
          "internalType": "string",
          "name": "_description",
          "type": "string"
        }
      ],
      "name": "requestMedicine",
      "outputs": [],
      "payable": false,
      "stateMutability": "nonpayable",
      "type": "function"
    },
    {
      "constant": false,
      "inputs": [
        {
          "internalType": "uint256",
          "name": "_medicineID",
          "type": "uint256"
        }
      ],
      "name": "approveMedicine",
      "outputs": [],
      "payable": false,
      "stateMutability": "nonpayable",
      "type": "function"
    },
    {
      "constant": false,
      "inputs": [
        {
          "internalType": "uint256",
          "name": "_medicineID",
          "type": "uint256"
        }
      ],
      "name": "RMSsupply",
      "outputs": [],
      "payable": false,
      "stateMutability": "nonpayable",
      "type": "function"
    },
    {
      "constant": false,
      "inputs": [
        {
          "internalType": "uint256",
          "name": "_medicineID",
          "type": "uint256"
        }
      ],
      "name": "Manufacturing",
      "outputs": [],
      "payable": false,
      "stateMutability": "nonpayable",
      "type": "function"
    },
    {
      "constant": false,
      "inputs": [
        {
          "internalType": "uint256",
          "name": "_medicineID",
          "type": "uint256"
        }
      ],
      "name": "Distribute",
      "outputs": [],
      "payable": false,
      "stateMutability": "nonpayable",
      "type": "function"
    },
    {
      "constant": false,
      "inputs": [
        {
          "internalType": "uint256",
          "name": "_medicineID",
          "type": "uint256"
        }
      ],
      "name": "Retail",
      "outputs": [],
      "payable": false,
      "stateMutability": "nonpayable",
      "type": "function"
    },
    {
      "constant": false,
      "inputs": [
        {
          "internalType": "uint256",
          "name": "_medicineID",
          "type": "uint256"
        }
      ],
      "name": "sold",
      "outputs": [],
      "payable": false,
      "stateMutability": "nonpayable",
      "type": "function"
    },
    {
      "constant": true,
      "inputs": [
        {
          "internalType": "uint256",
          "name": "_medicineID",
          "type": "uint256"
        }
      ],
      "name": "showStage",
      "outputs": [
        {
          "internalType": "string",
          "name": "",
          "type": "string"
        }
      ],
      "payable": false,
      "stateMutability": "view",
      "type": "function"
    }
  ],
  "bytecode": "0x6080604052600060025534801561001557600080fd5b50336000806101000a81548173ffffffffffffffffffffffffffffffffffffffff021916908373ffffffffffffffffffffffffffffffffffffffff160217905550611953806100656000396000f3fe608060405234801561001057600080fd5b50600436106100cf5760003560e01c80639c03facb1161008c578063b06f1b0911610066578063b06f1b09146103be578063b4a99a4e146103ec578063e101a2e014610436578063eb1a06b5146104dd576100cf565b80639c03facb14610344578063a48d335a14610372578063a95f29d9146103a0576100cf565b80631d092f81146100d45780633d753a1c146102265780634def474a146102545780637fd6a66b1461028257806386c18275146102b057806399374642146102de575b600080fd5b610224600480360360408110156100ea57600080fd5b810190808035906020019064010000000081111561010757600080fd5b82018360208201111561011957600080fd5b8035906020019184600183028401116401000000008311171561013b57600080fd5b91908080601f016020809104026020016040519081016040528093929190818152602001838380828437600081840152601f19601f8201169050808301925050505050505091929192908035906020019064010000000081111561019e57600080fd5b8201836020820111156101b057600080fd5b803590602001918460018302840111640100000000831117156101d257600080fd5b91908080601f016020809104026020016040519081016040528093929190818152602001838380828437600081840152601f19601f82011690508083019250505050505050919291929050505061070b565b005b6102526004803603602081101561023c57600080fd5b81019080803590602001909291905050506109cd565b005b6102806004803603602081101561026a57600080fd5b8101908080359060200190929190505050610b0e565b005b6102ae6004803603602081101561029857600080fd5b8101908080359060200190929190505050610c4f565b005b6102dc600480360360208110156102c657600080fd5b8101908080359060200190929190505050610d91565b005b610320600480360360208110156102f457600080fd5b81019080803573ffffffffffffffffffffffffffffffffffffffff169060200190929190505050610ed2565b6040518082600581111561033057fe5b60ff16815260200191505060405180910390f35b6103706004803603602081101561035a57600080fd5b8101908080359060200190929190505050610ef2565b005b61039e6004803603602081101561038857600080fd5b81019080803590602001909291905050506110b5565b005b6103a86111a0565b6040518082815260200191505060405180910390f35b6103ea600480360360208110156103d457600080fd5b81019080803590602001909291905050506111a6565b005b6103f4611297565b604051808273ffffffffffffffffffffffffffffffffffffffff1673ffffffffffffffffffffffffffffffffffffffff16815260200191505060405180910390f35b6104626004803603602081101561044c57600080fd5b81019080803590602001909291905050506112bc565b6040518080602001828103825283818151815260200191508051906020019080838360005b838110156104a2578082015181840152602081019050610487565b50505050905090810190601f1680156104cf5780820380516001836020036101000a031916815260200191505b509250505060405180910390f35b610509600480360360208110156104f357600080fd5b810190808035906020019092919050505061164e565b604051808a815260200180602001806020018973ffffffffffffffffffffffffffffffffffffffff1673ffffffffffffffffffffffffffffffffffffffff1681526020018873ffffffffffffffffffffffffffffffffffffffff1673ffffffffffffffffffffffffffffffffffffffff1681526020018773ffffffffffffffffffffffffffffffffffffffff1673ffffffffffffffffffffffffffffffffffffffff1681526020018673ffffffffffffffffffffffffffffffffffffffff1673ffffffffffffffffffffffffffffffffffffffff1681526020018573ffffffffffffffffffffffffffffffffffffffff1673ffffffffffffffffffffffffffffffffffffffff16815260200184600681111561062157fe5b60ff16815260200183810383528b818151815260200191508051906020019080838360005b83811015610661578082015181840152602081019050610646565b50505050905090810190601f16801561068e5780820380516001836020036101000a031916815260200191505b5083810382528a818151815260200191508051906020019080838360005b838110156106c75780820151818401526020810190506106ac565b50505050905090810190601f1680156106f45780820380516001836020036101000a031916815260200191505b509b50505050505050505050505060405180910390f35b600560026000815480929190600101919050555060405180610120016040528060025481526020018481526020018381526020013373ffffffffffffffffffffffffffffffffffffffff168152602001600073ffffffffffffffffffffffffffffffffffffffff168152602001600073ffffffffffffffffffffffffffffffffffffffff168152602001600073ffffffffffffffffffffffffffffffffffffffff168152602001600073ffffffffffffffffffffffffffffffffffffffff168152602001600060068111156107dc57fe5b81525060036000600254815260200190815260200160002060008201518160000155602082015181600101908051906020019061081a929190611879565b506040820151816002019080519060200190610837929190611879565b5060608201518160030160006101000a81548173ffffffffffffffffffffffffffffffffffffffff021916908373ffffffffffffffffffffffffffffffffffffffff16021790555060808201518160040160006101000a81548173ffffffffffffffffffffffffffffffffffffffff021916908373ffffffffffffffffffffffffffffffffffffffff16021790555060a08201518160050160006101000a81548173ffffffffffffffffffffffffffffffffffffffff021916908373ffffffffffffffffffffffffffffffffffffffff16021790555060c08201518160060160006101000a81548173ffffffffffffffffffffffffffffffffffffffff021916908373ffffffffffffffffffffffffffffffffffffffff16021790555060e08201518160070160006101000a81548173ffffffffffffffffffffffffffffffffffffffff021916908373ffffffffffffffffffffffffffffffffffffffff1602179055506101008201518160070160146101000a81548160ff021916908360068111156109c057fe5b0217905550905050505050565b60048060068111156109db57fe5b6003600084815260200190815260200160002060070160149054906101000a900460ff166006811115610a0a57fe5b14610a7d576040517f08c379a000000000000000000000000000000000000000000000000000000000815260040180806020018281038252600b8152602001807f57726f6e6720737461676500000000000000000000000000000000000000000081525060200191505060405180910390fd5b336003600084815260200190815260200160002060070160006101000a81548173ffffffffffffffffffffffffffffffffffffffff021916908373ffffffffffffffffffffffffffffffffffffffff16021790555060056003600084815260200190815260200160002060070160146101000a81548160ff02191690836006811115610b0557fe5b02179055505050565b6003806006811115610b1c57fe5b6003600084815260200190815260200160002060070160149054906101000a900460ff166006811115610b4b57fe5b14610bbe576040517f08c379a000000000000000000000000000000000000000000000000000000000815260040180806020018281038252600b8152602001807f57726f6e6720737461676500000000000000000000000000000000000000000081525060200191505060405180910390fd5b336003600084815260200190815260200160002060060160006101000a81548173ffffffffffffffffffffffffffffffffffffffff021916908373ffffffffffffffffffffffffffffffffffffffff16021790555060046003600084815260200190815260200160002060070160146101000a81548160ff02191690836006811115610c4657fe5b02179055505050565b600260006006811115610c5e57fe5b6003600084815260200190815260200160002060070160149054906101000a900460ff166006811115610c8d57fe5b14610d00576040517f08c379a000000000000000000000000000000000000000000000000000000000815260040180806020018281038252600d8152602001807f4e6f74207265717565737465640000000000000000000000000000000000000081525060200191505060405180910390fd5b336003600084815260200190815260200160002060050160006101000a81548173ffffffffffffffffffffffffffffffffffffffff021916908373ffffffffffffffffffffffffffffffffffffffff16021790555060016003600084815260200190815260200160002060070160146101000a81548160ff02191690836006811115610d8857fe5b02179055505050565b6001806006811115610d9f57fe5b6003600084815260200190815260200160002060070160149054906101000a900460ff166006811115610dce57fe5b14610e41576040517f08c379a000000000000000000000000000000000000000000000000000000000815260040180806020018281038252600c8152602001807f4e6f7420617070726f766564000000000000000000000000000000000000000081525060200191505060405180910390fd5b336003600084815260200190815260200160002060040160006101000a81548173ffffffffffffffffffffffffffffffffffffffff021916908373ffffffffffffffffffffffffffffffffffffffff16021790555060026003600084815260200190815260200160002060070160146101000a81548160ff02191690836006811115610ec957fe5b02179055505050565b60016020528060005260406000206000915054906101000a900460ff1681565b6005806006811115610f0057fe5b6003600084815260200190815260200160002060070160149054906101000a900460ff166006811115610f2f57fe5b14610fa2576040517f08c379a000000000000000000000000000000000000000000000000000000000815260040180806020018281038252600b8152602001807f57726f6e6720737461676500000000000000000000000000000000000000000081525060200191505060405180910390fd5b3373ffffffffffffffffffffffffffffffffffffffff166003600084815260200190815260200160002060030160009054906101000a900473ffffffffffffffffffffffffffffffffffffffff1673ffffffffffffffffffffffffffffffffffffffff1614611079576040517f08c379a00000000000000000000000000000000000000000000000000000000081526004018080602001828103825260108152602001807f4e6f7420796f75722070726f647563740000000000000000000000000000000081525060200191505060405180910390fd5b60066003600084815260200190815260200160002060070160146101000a81548160ff021916908360068111156110ac57fe5b02179055505050565b60028060068111156110c357fe5b6003600084815260200190815260200160002060070160149054906101000a900460ff1660068111156110f257fe5b14611165576040517f08c379a000000000000000000000000000000000000000000000000000000000815260040180806020018281038252600b8152602001807f57726f6e6720737461676500000000000000000000000000000000000000000081525060200191505060405180910390fd5b600380600084815260200190815260200160002060070160146101000a81548160ff0219169083600681111561119757fe5b02179055505050565b60025481565b6000811180156111b7575060058111155b611229576040517f08c379a000000000000000000000000000000000000000000000000000000000815260040180806020018281038252600c8152602001807f496e76616c696420726f6c65000000000000000000000000000000000000000081525060200191505060405180910390fd5b80600581111561123557fe5b600160003373ffffffffffffffffffffffffffffffffffffffff1673ffffffffffffffffffffffffffffffffffffffff16815260200190815260200160002060006101000a81548160ff0219169083600581111561128f57fe5b021790555050565b6000809054906101000a900473ffffffffffffffffffffffffffffffffffffffff1681565b6060600060068111156112cb57fe5b6003600084815260200190815260200160002060070160149054906101000a900460ff1660068111156112fa57fe5b141561133d576040518060400160405280600981526020017f52657175657374656400000000000000000000000000000000000000000000008152509050611649565b6001600681111561134a57fe5b6003600084815260200190815260200160002060070160149054906101000a900460ff16600681111561137957fe5b14156113bc576040518060400160405280600881526020017f417070726f7665640000000000000000000000000000000000000000000000008152509050611649565b600260068111156113c957fe5b6003600084815260200190815260200160002060070160149054906101000a900460ff1660068111156113f857fe5b141561143b576040518060400160405280601381526020017f526177204d6174657269616c20537570706c79000000000000000000000000008152509050611649565b6003600681111561144857fe5b6003600084815260200190815260200160002060070160149054906101000a900460ff16600681111561147757fe5b14156114ba576040518060400160405280600d81526020017f4d616e75666163747572696e67000000000000000000000000000000000000008152509050611649565b600460068111156114c757fe5b6003600084815260200190815260200160002060070160149054906101000a900460ff1660068111156114f657fe5b1415611539576040518060400160405280600c81526020017f446973747269627574696f6e00000000000000000000000000000000000000008152509050611649565b6005600681111561154657fe5b6003600084815260200190815260200160002060070160149054906101000a900460ff16600681111561157557fe5b14156115b8576040518060400160405280600681526020017f52657461696c00000000000000000000000000000000000000000000000000008152509050611649565b6006808111156115c457fe5b6003600084815260200190815260200160002060070160149054906101000a900460ff1660068111156115f357fe5b1415611636576040518060400160405280600481526020017f536f6c64000000000000000000000000000000000000000000000000000000008152509050611649565b6040518060200160405280600081525090505b919050565b6003602052806000526040600020600091509050806000015490806001018054600181600116156101000203166002900480601f0160208091040260200160405190810160405280929190818152602001828054600181600116156101000203166002900480156117005780601f106116d557610100808354040283529160200191611700565b820191906000526020600020905b8154815290600101906020018083116116e357829003601f168201915b505050505090806002018054600181600116156101000203166002900480601f01602080910402602001604051908101604052809291908181526020018280546001816001161561010002031660029004801561179e5780601f106117735761010080835404028352916020019161179e565b820191906000526020600020905b81548152906001019060200180831161178157829003601f168201915b5050505050908060030160009054906101000a900473ffffffffffffffffffffffffffffffffffffffff16908060040160009054906101000a900473ffffffffffffffffffffffffffffffffffffffff16908060050160009054906101000a900473ffffffffffffffffffffffffffffffffffffffff16908060060160009054906101000a900473ffffffffffffffffffffffffffffffffffffffff16908060070160009054906101000a900473ffffffffffffffffffffffffffffffffffffffff16908060070160149054906101000a900460ff16905089565b828054600181600116156101000203166002900490600052602060002090601f016020900481019282601f106118ba57805160ff19168380011785556118e8565b828001600101855582156118e8579182015b828111156118e75782518255916020019190600101906118cc565b5b5090506118f591906118f9565b5090565b61191b91905b808211156119175760008160009055506001016118ff565b5090565b9056fea265627a7a723158209f66e7ff5e40ad69b75ea634f0056c21bd80b69c5d8774af4cd53219b5c2c98864736f6c63430005100032",
  "source": "// SPDX-License-Identifier: MIT\r\npragma solidity >=0.4.22 <0.9.0;\r\n\r\ncontract SupplyChain {\r\n\r\n    address public Owner;\r\n\r\n    constructor() public {\r\n        Owner = msg.sender;\r\n    }\r\n\r\n    // 🔥 ROLE SYSTEM\r\n    enum ROLE {\r\n        None,\r\n        Supplier,\r\n        Manufacturer,\r\n        Distributor,\r\n        Retailer,\r\n        Customer\r\n    }\r\n\r\n    mapping(address => ROLE) public roles;\r\n\r\n    function registerRole(uint _role) public {\r\n        require(_role > 0 && _role <= 5, \"Invalid role\");\r\n        roles[msg.sender] = ROLE(_role);\r\n    }\r\n\r\n    modifier onlyRole(ROLE _role) {\r\n    _;\r\n}\r\n\r\n    // 🔥 UPDATED STAGES\r\n    enum STAGE {\r\n        Requested,          // 0\r\n        Approved,           // 1\r\n        RawMaterialSupply,  // 2\r\n        Manufacture,        // 3\r\n        Distribution,       // 4\r\n        Retail,             // 5\r\n        Sold                // 6\r\n    }\r\n\r\n    uint256 public medicineCtr = 0;\r\n\r\n    struct medicine {\r\n        uint256 id;\r\n        string name;\r\n        string description;\r\n        address customer;      // 🔥 NEW\r\n        address supplier;\r\n        address manufacturer;\r\n        address distributor;\r\n        address retailer;\r\n        STAGE stage;\r\n    }\r\n\r\n    mapping(uint256 => medicine) public MedicineStock;\r\n\r\n    // 🔥 1. CUSTOMER REQUEST\r\n    function requestMedicine(string memory _name, string memory _description)\r\n        public\r\n        onlyRole(ROLE.Customer)\r\n    {\r\n        medicineCtr++;\r\n\r\n        MedicineStock[medicineCtr] = medicine(\r\n            medicineCtr,\r\n            _name,\r\n            _description,\r\n            msg.sender,\r\n            address(0),\r\n            address(0),\r\n            address(0),\r\n            address(0),\r\n            STAGE.Requested\r\n        );\r\n    }\r\n\r\n    // 🔥 2. MANUFACTURER APPROVES\r\n    function approveMedicine(uint256 _medicineID)\r\n        public\r\n        onlyRole(ROLE.Manufacturer)\r\n    {\r\n        require(\r\n            MedicineStock[_medicineID].stage == STAGE.Requested,\r\n            \"Not requested\"\r\n        );\r\n\r\n        MedicineStock[_medicineID].manufacturer = msg.sender;\r\n        MedicineStock[_medicineID].stage = STAGE.Approved;\r\n    }\r\n\r\n    // 🔥 3. SUPPLIER\r\n    function RMSsupply(uint256 _medicineID)\r\n        public\r\n        onlyRole(ROLE.Supplier)\r\n    {\r\n        require(\r\n            MedicineStock[_medicineID].stage == STAGE.Approved,\r\n            \"Not approved\"\r\n        );\r\n\r\n        MedicineStock[_medicineID].supplier = msg.sender;\r\n        MedicineStock[_medicineID].stage = STAGE.RawMaterialSupply;\r\n    }\r\n\r\n    // 🔥 4. MANUFACTURING\r\n    function Manufacturing(uint256 _medicineID)\r\n        public\r\n        onlyRole(ROLE.Manufacturer)\r\n    {\r\n        require(\r\n            MedicineStock[_medicineID].stage == STAGE.RawMaterialSupply,\r\n            \"Wrong stage\"\r\n        );\r\n\r\n        MedicineStock[_medicineID].stage = STAGE.Manufacture;\r\n    }\r\n\r\n    // 🔥 5. DISTRIBUTION\r\n    function Distribute(uint256 _medicineID)\r\n        public\r\n        onlyRole(ROLE.Distributor)\r\n    {\r\n        require(\r\n            MedicineStock[_medicineID].stage == STAGE.Manufacture,\r\n            \"Wrong stage\"\r\n        );\r\n\r\n        MedicineStock[_medicineID].distributor = msg.sender;\r\n        MedicineStock[_medicineID].stage = STAGE.Distribution;\r\n    }\r\n\r\n    // 🔥 6. RETAIL\r\n    function Retail(uint256 _medicineID)\r\n        public\r\n        onlyRole(ROLE.Retailer)\r\n    {\r\n        require(\r\n            MedicineStock[_medicineID].stage == STAGE.Distribution,\r\n            \"Wrong stage\"\r\n        );\r\n\r\n        MedicineStock[_medicineID].retailer = msg.sender;\r\n        MedicineStock[_medicineID].stage = STAGE.Retail;\r\n    }\r\n\r\n    // 🔥 7. SOLD (ONLY OWNER CUSTOMER)\r\n    function sold(uint256 _medicineID)\r\n        public\r\n        onlyRole(ROLE.Customer)\r\n    {\r\n        require(\r\n            MedicineStock[_medicineID].stage == STAGE.Retail,\r\n            \"Wrong stage\"\r\n        );\r\n\r\n        require(\r\n            MedicineStock[_medicineID].customer == msg.sender,\r\n            \"Not your product\"\r\n        );\r\n\r\n        MedicineStock[_medicineID].stage = STAGE.Sold;\r\n    }\r\n\r\n    // 🔥 SHOW STAGE\r\n    function showStage(uint256 _medicineID)\r\n        public\r\n        view\r\n        returns (string memory)\r\n    {\r\n        if (MedicineStock[_medicineID].stage == STAGE.Requested)\r\n            return \"Requested\";\r\n        else if (MedicineStock[_medicineID].stage == STAGE.Approved)\r\n            return \"Approved\";\r\n        else if (MedicineStock[_medicineID].stage == STAGE.RawMaterialSupply)\r\n            return \"Raw Material Supply\";\r\n        else if (MedicineStock[_medicineID].stage == STAGE.Manufacture)\r\n            return \"Manufacturing\";\r\n        else if (MedicineStock[_medicineID].stage == STAGE.Distribution)\r\n            return \"Distribution\";\r\n        else if (MedicineStock[_medicineID].stage == STAGE.Retail)\r\n            return \"Retail\";\r\n        else if (MedicineStock[_medicineID].stage == STAGE.Sold)\r\n            return \"Sold\";\r\n\r\n        return \"\";\r\n    }\r\n}",
  "sourcePath": "C:\\Deep\\St Franics\\Projects\\BlockchainProject\\Blockchain SCM\\contracts\\SupplyChain.sol",
  "compiler": {
    "name": "solc",
    "version": "0.5.16+commit.9c3226ce.Emscripten.clang"
  },
  "schemaVersion": "3.4.16",
  "updatedAt": "2026-04-19T16:15:02.267Z",
  "networkType": "ethereum",
  "devdoc": {
    "methods": {}
  },
  "userdoc": {
    "methods": {}
  }
}