{
  "contractName": "SupplyChain",
  "abi": [
    {
      "inputs": [],
      "payable": false,
      "stateMutability": "nonpayable",
      "type": "constructor"
    },
    {
      "constant": true,
      "inputs": [
        {
          "internalType": "uint256",
          "name": "",
          "type": "uint256"
        }
      ],
      "name": "MedicineStock",
      "outputs": [
        {
          "internalType": "uint256",
          "name": "id",
          "type": "uint256"
        },
        {
          "internalType": "string",
          "name": "name",
          "type": "string"
        },
        {
          "internalType": "string",
          "name": "description",
          "type": "string"
        },
        {
          "internalType": "address",
          "name": "supplier",
          "type": "address"
        },
        {
          "internalType": "address",
          "name": "manufacturer",
          "type": "address"
        },
        {
          "internalType": "address",
          "name": "distributor",
          "type": "address"
        },
        {
          "internalType": "address",
          "name": "retailer",
          "type": "address"
        },
        {
          "internalType": "enum SupplyChain.STAGE",
          "name": "stage",
          "type": "uint8"
        }
      ],
      "payable": false,
      "stateMutability": "view",
      "type": "function"
    },
    {
      "constant": true,
      "inputs": [],
      "name": "Owner",
      "outputs": [
        {
          "internalType": "address",
          "name": "",
          "type": "address"
        }
      ],
      "payable": false,
      "stateMutability": "view",
      "type": "function"
    },
    {
      "constant": true,
      "inputs": [],
      "name": "medicineCtr",
      "outputs": [
        {
          "internalType": "uint256",
          "name": "",
          "type": "uint256"
        }
      ],
      "payable": false,
      "stateMutability": "view",
      "type": "function"
    },
    {
      "constant": true,
      "inputs": [
        {
          "internalType": "address",
          "name": "",
          "type": "address"
        }
      ],
      "name": "roles",
      "outputs": [
        {
          "internalType": "enum SupplyChain.ROLE",
          "name": "",
          "type": "uint8"
        }
      ],
      "payable": false,
      "stateMutability": "view",
      "type": "function"
    },
    {
      "constant": false,
      "inputs": [
        {
          "internalType": "uint256",
          "name": "_role",
          "type": "uint256"
        }
      ],
      "name": "registerRole",
      "outputs": [],
      "payable": false,
      "stateMutability": "nonpayable",
      "type": "function"
    },
    {
      "constant": false,
      "inputs": [
        {
          "internalType": "string",
          "name": "_name",
          "type": "string"
        },
        {
          "internalType": "string",
          "name": "_description",
          "type": "string"
        }
      ],
      "name": "addMedicine",
      "outputs": [],
      "payable": false,
      "stateMutability": "nonpayable",
      "type": "function"
    },
    {
      "constant": false,
      "inputs": [
        {
          "internalType": "uint256",
          "name": "_medicineID",
          "type": "uint256"
        }
      ],
      "name": "RMSsupply",
      "outputs": [],
      "payable": false,
      "stateMutability": "nonpayable",
      "type": "function"
    },
    {
      "constant": false,
      "inputs": [
        {
          "internalType": "uint256",
          "name": "_medicineID",
          "type": "uint256"
        }
      ],
      "name": "Manufacturing",
      "outputs": [],
      "payable": false,
      "stateMutability": "nonpayable",
      "type": "function"
    },
    {
      "constant": false,
      "inputs": [
        {
          "internalType": "uint256",
          "name": "_medicineID",
          "type": "uint256"
        }
      ],
      "name": "Distribute",
      "outputs": [],
      "payable": false,
      "stateMutability": "nonpayable",
      "type": "function"
    },
    {
      "constant": false,
      "inputs": [
        {
          "internalType": "uint256",
          "name": "_medicineID",
          "type": "uint256"
        }
      ],
      "name": "Retail",
      "outputs": [],
      "payable": false,
      "stateMutability": "nonpayable",
      "type": "function"
    },
    {
      "constant": false,
      "inputs": [
        {
          "internalType": "uint256",
          "name": "_medicineID",
          "type": "uint256"
        }
      ],
      "name": "sold",
      "outputs": [],
      "payable": false,
      "stateMutability": "nonpayable",
      "type": "function"
    },
    {
      "constant": true,
      "inputs": [
        {
          "internalType": "uint256",
          "name": "_medicineID",
          "type": "uint256"
        }
      ],
      "name": "showStage",
      "outputs": [
        {
          "internalType": "string",
          "name": "",
          "type": "string"
        }
      ],
      "payable": false,
      "stateMutability": "view",
      "type": "function"
    }
  ],
  "bytecode": "0x6080604052600060025534801561001557600080fd5b50336000806101000a81548173ffffffffffffffffffffffffffffffffffffffff021916908373ffffffffffffffffffffffffffffffffffffffff160217905550611ac3806100656000396000f3fe608060405234801561001057600080fd5b50600436106100b45760003560e01c8063a48d335a11610071578063a48d335a14610329578063a95f29d914610357578063b06f1b0914610375578063b4a99a4e146103a3578063e101a2e0146103ed578063eb1a06b514610494576100b4565b80633d753a1c146100b95780634def474a146100e757806386c18275146101155780638f4183cc1461014357806399374642146102955780639c03facb146102fb575b600080fd5b6100e5600480360360208110156100cf57600080fd5b810190808035906020019092919050505061068f565b005b610113600480360360208110156100fd57600080fd5b81019080803590602001909291905050506108a8565b005b6101416004803603602081101561012b57600080fd5b8101908080359060200190929190505050610ac0565b005b6102936004803603604081101561015957600080fd5b810190808035906020019064010000000081111561017657600080fd5b82018360208201111561018857600080fd5b803590602001918460018302840111640100000000831117156101aa57600080fd5b91908080601f016020809104026020016040519081016040528093929190818152602001838380828437600081840152601f19601f8201169050808301925050505050505091929192908035906020019064010000000081111561020d57600080fd5b82018360208201111561021f57600080fd5b8035906020019184600183028401116401000000008311171561024157600080fd5b91908080601f016020809104026020016040519081016040528093929190818152602001838380828437600081840152601f19601f820116905080830192505050505050509192919290505050610c84565b005b6102d7600480360360208110156102ab57600080fd5b81019080803573ffffffffffffffffffffffffffffffffffffffff169060200190929190505050610fb8565b604051808260058111156102e757fe5b60ff16815260200191505060405180910390f35b6103276004803603602081101561031157600080fd5b8101908080359060200190929190505050610fd8565b005b6103556004803603602081101561033f57600080fd5b810190808035906020019092919050505061119c565b005b61035f6113b5565b6040518082815260200191505060405180910390f35b6103a16004803603602081101561038b57600080fd5b81019080803590602001909291905050506113bb565b005b6103ab6114ac565b604051808273ffffffffffffffffffffffffffffffffffffffff1673ffffffffffffffffffffffffffffffffffffffff16815260200191505060405180910390f35b6104196004803603602081101561040357600080fd5b81019080803590602001909291905050506114d1565b6040518080602001828103825283818151815260200191508051906020019080838360005b8381101561045957808201518184015260208101905061043e565b50505050905090810190601f1680156104865780820380516001836020036101000a031916815260200191505b509250505060405180910390f35b6104c0600480360360208110156104aa57600080fd5b81019080803590602001909291905050506117e4565b6040518089815260200180602001806020018873ffffffffffffffffffffffffffffffffffffffff1673ffffffffffffffffffffffffffffffffffffffff1681526020018773ffffffffffffffffffffffffffffffffffffffff1673ffffffffffffffffffffffffffffffffffffffff1681526020018673ffffffffffffffffffffffffffffffffffffffff1673ffffffffffffffffffffffffffffffffffffffff1681526020018573ffffffffffffffffffffffffffffffffffffffff1673ffffffffffffffffffffffffffffffffffffffff1681526020018460058111156105a657fe5b60ff16815260200183810383528a818151815260200191508051906020019080838360005b838110156105e65780820151818401526020810190506105cb565b50505050905090810190601f1680156106135780820380516001836020036101000a031916815260200191505b50838103825289818151815260200191508051906020019080838360005b8381101561064c578082015181840152602081019050610631565b50505050905090810190601f1680156106795780820380516001836020036101000a031916815260200191505b509a505050505050505050505060405180910390f35b600480600581111561069d57fe5b600160003373ffffffffffffffffffffffffffffffffffffffff1673ffffffffffffffffffffffffffffffffffffffff16815260200190815260200160002060009054906101000a900460ff1660058111156106f557fe5b14610768576040517f08c379a00000000000000000000000000000000000000000000000000000000081526004018080602001828103825260198152602001807f4163636573732064656e6965643a2077726f6e6720726f6c650000000000000081525060200191505060405180910390fd5b6003600581111561077557fe5b6003600084815260200190815260200160002060060160149054906101000a900460ff1660058111156107a457fe5b14610817576040517f08c379a000000000000000000000000000000000000000000000000000000000815260040180806020018281038252600b8152602001807f57726f6e6720737461676500000000000000000000000000000000000000000081525060200191505060405180910390fd5b336003600084815260200190815260200160002060060160006101000a81548173ffffffffffffffffffffffffffffffffffffffff021916908373ffffffffffffffffffffffffffffffffffffffff16021790555060046003600084815260200190815260200160002060060160146101000a81548160ff0219169083600581111561089f57fe5b02179055505050565b60038060058111156108b657fe5b600160003373ffffffffffffffffffffffffffffffffffffffff1673ffffffffffffffffffffffffffffffffffffffff16815260200190815260200160002060009054906101000a900460ff16600581111561090e57fe5b14610981576040517f08c379a00000000000000000000000000000000000000000000000000000000081526004018080602001828103825260198152602001807f4163636573732064656e6965643a2077726f6e6720726f6c650000000000000081525060200191505060405180910390fd5b6002600581111561098e57fe5b6003600084815260200190815260200160002060060160149054906101000a900460ff1660058111156109bd57fe5b14610a30576040517f08c379a000000000000000000000000000000000000000000000000000000000815260040180806020018281038252600b8152602001807f57726f6e6720737461676500000000000000000000000000000000000000000081525060200191505060405180910390fd5b336003600084815260200190815260200160002060050160006101000a81548173ffffffffffffffffffffffffffffffffffffffff021916908373ffffffffffffffffffffffffffffffffffffffff160217905550600380600084815260200190815260200160002060060160146101000a81548160ff02191690836005811115610ab757fe5b02179055505050565b6001806005811115610ace57fe5b600160003373ffffffffffffffffffffffffffffffffffffffff1673ffffffffffffffffffffffffffffffffffffffff16815260200190815260200160002060009054906101000a900460ff166005811115610b2657fe5b14610b99576040517f08c379a00000000000000000000000000000000000000000000000000000000081526004018080602001828103825260198152602001807f4163636573732064656e6965643a2077726f6e6720726f6c650000000000000081525060200191505060405180910390fd5b60006005811115610ba657fe5b6003600084815260200190815260200160002060060160149054906101000a900460ff166005811115610bd557fe5b14610c48576040517f08c379a000000000000000000000000000000000000000000000000000000000815260040180806020018281038252600b8152602001807f57726f6e6720737461676500000000000000000000000000000000000000000081525060200191505060405180910390fd5b60016003600084815260200190815260200160002060060160146101000a81548160ff02191690836005811115610c7b57fe5b02179055505050565b6001806005811115610c9257fe5b600160003373ffffffffffffffffffffffffffffffffffffffff1673ffffffffffffffffffffffffffffffffffffffff16815260200190815260200160002060009054906101000a900460ff166005811115610cea57fe5b14610d5d576040517f08c379a00000000000000000000000000000000000000000000000000000000081526004018080602001828103825260198152602001807f4163636573732064656e6965643a2077726f6e6720726f6c650000000000000081525060200191505060405180910390fd5b60026000815480929190600101919050555060405180610100016040528060025481526020018481526020018381526020013373ffffffffffffffffffffffffffffffffffffffff168152602001600073ffffffffffffffffffffffffffffffffffffffff168152602001600073ffffffffffffffffffffffffffffffffffffffff168152602001600073ffffffffffffffffffffffffffffffffffffffff16815260200160006005811115610e0f57fe5b815250600360006002548152602001908152602001600020600082015181600001556020820151816001019080519060200190610e4d9291906119e9565b506040820151816002019080519060200190610e6a9291906119e9565b5060608201518160030160006101000a81548173ffffffffffffffffffffffffffffffffffffffff021916908373ffffffffffffffffffffffffffffffffffffffff16021790555060808201518160040160006101000a81548173ffffffffffffffffffffffffffffffffffffffff021916908373ffffffffffffffffffffffffffffffffffffffff16021790555060a08201518160050160006101000a81548173ffffffffffffffffffffffffffffffffffffffff021916908373ffffffffffffffffffffffffffffffffffffffff16021790555060c08201518160060160006101000a81548173ffffffffffffffffffffffffffffffffffffffff021916908373ffffffffffffffffffffffffffffffffffffffff16021790555060e08201518160060160146101000a81548160ff02191690836005811115610fab57fe5b0217905550905050505050565b60016020528060005260406000206000915054906101000a900460ff1681565b6005806005811115610fe657fe5b600160003373ffffffffffffffffffffffffffffffffffffffff1673ffffffffffffffffffffffffffffffffffffffff16815260200190815260200160002060009054906101000a900460ff16600581111561103e57fe5b146110b1576040517f08c379a00000000000000000000000000000000000000000000000000000000081526004018080602001828103825260198152602001807f4163636573732064656e6965643a2077726f6e6720726f6c650000000000000081525060200191505060405180910390fd5b600460058111156110be57fe5b6003600084815260200190815260200160002060060160149054906101000a900460ff1660058111156110ed57fe5b14611160576040517f08c379a000000000000000000000000000000000000000000000000000000000815260040180806020018281038252600b8152602001807f57726f6e6720737461676500000000000000000000000000000000000000000081525060200191505060405180910390fd5b60056003600084815260200190815260200160002060060160146101000a81548160ff0219169083600581111561119357fe5b02179055505050565b60028060058111156111aa57fe5b600160003373ffffffffffffffffffffffffffffffffffffffff1673ffffffffffffffffffffffffffffffffffffffff16815260200190815260200160002060009054906101000a900460ff16600581111561120257fe5b14611275576040517f08c379a00000000000000000000000000000000000000000000000000000000081526004018080602001828103825260198152602001807f4163636573732064656e6965643a2077726f6e6720726f6c650000000000000081525060200191505060405180910390fd5b6001600581111561128257fe5b6003600084815260200190815260200160002060060160149054906101000a900460ff1660058111156112b157fe5b14611324576040517f08c379a000000000000000000000000000000000000000000000000000000000815260040180806020018281038252600b8152602001807f57726f6e6720737461676500000000000000000000000000000000000000000081525060200191505060405180910390fd5b336003600084815260200190815260200160002060040160006101000a81548173ffffffffffffffffffffffffffffffffffffffff021916908373ffffffffffffffffffffffffffffffffffffffff16021790555060026003600084815260200190815260200160002060060160146101000a81548160ff021916908360058111156113ac57fe5b02179055505050565b60025481565b6000811180156113cc575060058111155b61143e576040517f08c379a000000000000000000000000000000000000000000000000000000000815260040180806020018281038252600c8152602001807f496e76616c696420726f6c65000000000000000000000000000000000000000081525060200191505060405180910390fd5b80600581111561144a57fe5b600160003373ffffffffffffffffffffffffffffffffffffffff1673ffffffffffffffffffffffffffffffffffffffff16815260200190815260200160002060006101000a81548160ff021916908360058111156114a457fe5b021790555050565b6000809054906101000a900473ffffffffffffffffffffffffffffffffffffffff1681565b6060600060058111156114e057fe5b6003600084815260200190815260200160002060060160149054906101000a900460ff16600581111561150f57fe5b1415611552576040518060400160405280600781526020017f437265617465640000000000000000000000000000000000000000000000000081525090506117df565b6001600581111561155f57fe5b6003600084815260200190815260200160002060060160149054906101000a900460ff16600581111561158e57fe5b14156115d1576040518060400160405280601381526020017f526177204d6174657269616c20537570706c790000000000000000000000000081525090506117df565b600260058111156115de57fe5b6003600084815260200190815260200160002060060160149054906101000a900460ff16600581111561160d57fe5b1415611650576040518060400160405280600d81526020017f4d616e75666163747572696e670000000000000000000000000000000000000081525090506117df565b6003600581111561165d57fe5b6003600084815260200190815260200160002060060160149054906101000a900460ff16600581111561168c57fe5b14156116cf576040518060400160405280600c81526020017f446973747269627574696f6e000000000000000000000000000000000000000081525090506117df565b600460058111156116dc57fe5b6003600084815260200190815260200160002060060160149054906101000a900460ff16600581111561170b57fe5b141561174e576040518060400160405280600681526020017f52657461696c000000000000000000000000000000000000000000000000000081525090506117df565b60058081111561175a57fe5b6003600084815260200190815260200160002060060160149054906101000a900460ff16600581111561178957fe5b14156117cc576040518060400160405280600481526020017f536f6c640000000000000000000000000000000000000000000000000000000081525090506117df565b6040518060200160405280600081525090505b919050565b6003602052806000526040600020600091509050806000015490806001018054600181600116156101000203166002900480601f0160208091040260200160405190810160405280929190818152602001828054600181600116156101000203166002900480156118965780601f1061186b57610100808354040283529160200191611896565b820191906000526020600020905b81548152906001019060200180831161187957829003601f168201915b505050505090806002018054600181600116156101000203166002900480601f0160208091040260200160405190810160405280929190818152602001828054600181600116156101000203166002900480156119345780601f1061190957610100808354040283529160200191611934565b820191906000526020600020905b81548152906001019060200180831161191757829003601f168201915b5050505050908060030160009054906101000a900473ffffffffffffffffffffffffffffffffffffffff16908060040160009054906101000a900473ffffffffffffffffffffffffffffffffffffffff16908060050160009054906101000a900473ffffffffffffffffffffffffffffffffffffffff16908060060160009054906101000a900473ffffffffffffffffffffffffffffffffffffffff16908060060160149054906101000a900460ff16905088565b828054600181600116156101000203166002900490600052602060002090601f016020900481019282601f10611a2a57805160ff1916838001178555611a58565b82800160010185558215611a58579182015b82811115611a57578251825591602001919060010190611a3c565b5b509050611a659190611a69565b5090565b611a8b91905b80821115611a87576000816000905550600101611a6f565b5090565b9056fea265627a7a72315820e44a8f32f61b99e2ac994e3b6db226f8258000e2cf397e2b3591443cda0d2ead64736f6c63430005100032",
  "source": "// SPDX-License-Identifier: MIT\r\npragma solidity >=0.4.22 <0.9.0;\r\n\r\ncontract SupplyChain {\r\n\r\n    address public Owner;\r\n\r\n    constructor() public {\r\n        Owner = msg.sender;\r\n    }\r\n\r\n    // 🔥 ROLE SYSTEM (NEW)\r\n    enum ROLE {\r\n        None,\r\n        Supplier,\r\n        Manufacturer,\r\n        Distributor,\r\n        Retailer,\r\n        Customer\r\n    }\r\n\r\n    mapping(address => ROLE) public roles;\r\n\r\n    function registerRole(uint _role) public {\r\n        require(_role > 0 && _role <= 5, \"Invalid role\");\r\n        roles[msg.sender] = ROLE(_role);\r\n    }\r\n\r\n    modifier onlyRole(ROLE _role) {\r\n        require(roles[msg.sender] == _role, \"Access denied: wrong role\");\r\n        _;\r\n    }\r\n\r\n    // 🔥 STAGES\r\n    enum STAGE {\r\n        Init,\r\n        RawMaterialSupply,\r\n        Manufacture,\r\n        Distribution,\r\n        Retail,\r\n        Sold\r\n    }\r\n\r\n    uint256 public medicineCtr = 0;\r\n\r\n    struct medicine {\r\n        uint256 id;\r\n        string name;\r\n        string description;\r\n        address supplier;\r\n        address manufacturer;\r\n        address distributor;\r\n        address retailer;\r\n        STAGE stage;\r\n    }\r\n\r\n    mapping(uint256 => medicine) public MedicineStock;\r\n\r\n    // 🔥 ADD PRODUCT (ONLY SUPPLIER)\r\n    function addMedicine(string memory _name, string memory _description)\r\n        public\r\n        onlyRole(ROLE.Supplier)\r\n    {\r\n        medicineCtr++;\r\n\r\n        MedicineStock[medicineCtr] = medicine(\r\n            medicineCtr,\r\n            _name,\r\n            _description,\r\n            msg.sender,\r\n            address(0),\r\n            address(0),\r\n            address(0),\r\n            STAGE.Init\r\n        );\r\n    }\r\n\r\n    // 🔥 STAGE 1 → RAW MATERIAL\r\n    function RMSsupply(uint256 _medicineID)\r\n        public\r\n        onlyRole(ROLE.Supplier)\r\n    {\r\n        require(MedicineStock[_medicineID].stage == STAGE.Init, \"Wrong stage\");\r\n\r\n        MedicineStock[_medicineID].stage = STAGE.RawMaterialSupply;\r\n    }\r\n\r\n    // 🔥 STAGE 2 → MANUFACTURING\r\n    function Manufacturing(uint256 _medicineID)\r\n        public\r\n        onlyRole(ROLE.Manufacturer)\r\n    {\r\n        require(\r\n            MedicineStock[_medicineID].stage == STAGE.RawMaterialSupply,\r\n            \"Wrong stage\"\r\n        );\r\n\r\n        MedicineStock[_medicineID].manufacturer = msg.sender;\r\n        MedicineStock[_medicineID].stage = STAGE.Manufacture;\r\n    }\r\n\r\n    // 🔥 STAGE 3 → DISTRIBUTION\r\n    function Distribute(uint256 _medicineID)\r\n        public\r\n        onlyRole(ROLE.Distributor)\r\n    {\r\n        require(\r\n            MedicineStock[_medicineID].stage == STAGE.Manufacture,\r\n            \"Wrong stage\"\r\n        );\r\n\r\n        MedicineStock[_medicineID].distributor = msg.sender;\r\n        MedicineStock[_medicineID].stage = STAGE.Distribution;\r\n    }\r\n\r\n    // 🔥 STAGE 4 → RETAIL\r\n    function Retail(uint256 _medicineID)\r\n        public\r\n        onlyRole(ROLE.Retailer)\r\n    {\r\n        require(\r\n            MedicineStock[_medicineID].stage == STAGE.Distribution,\r\n            \"Wrong stage\"\r\n        );\r\n\r\n        MedicineStock[_medicineID].retailer = msg.sender;\r\n        MedicineStock[_medicineID].stage = STAGE.Retail;\r\n    }\r\n\r\n    // 🔥 STAGE 5 → SOLD\r\n    function sold(uint256 _medicineID)\r\n        public\r\n        onlyRole(ROLE.Customer)\r\n    {\r\n        require(\r\n            MedicineStock[_medicineID].stage == STAGE.Retail,\r\n            \"Wrong stage\"\r\n        );\r\n\r\n        MedicineStock[_medicineID].stage = STAGE.Sold;\r\n    }\r\n\r\n    // 🔥 SHOW STAGE (FOR UI)\r\n    function showStage(uint256 _medicineID)\r\n        public\r\n        view\r\n        returns (string memory)\r\n    {\r\n        if (MedicineStock[_medicineID].stage == STAGE.Init)\r\n            return \"Created\";\r\n        else if (MedicineStock[_medicineID].stage == STAGE.RawMaterialSupply)\r\n            return \"Raw Material Supply\";\r\n        else if (MedicineStock[_medicineID].stage == STAGE.Manufacture)\r\n            return \"Manufacturing\";\r\n        else if (MedicineStock[_medicineID].stage == STAGE.Distribution)\r\n            return \"Distribution\";\r\n        else if (MedicineStock[_medicineID].stage == STAGE.Retail)\r\n            return \"Retail\";\r\n        else if (MedicineStock[_medicineID].stage == STAGE.Sold)\r\n            return \"Sold\";\r\n\r\n        return \"\";\r\n    }\r\n}",
  "sourcePath": "C:\\Deep\\St Franics\\Sem 8\\BlockchainProject\\contracts\\SupplyChain.sol",
  "compiler": {
    "name": "solc",
    "version": "0.5.16+commit.9c3226ce.Emscripten.clang"
  },
  "schemaVersion": "3.4.16",
  "updatedAt": "2026-04-08T06:02:01.086Z",
  "devdoc": {
    "methods": {}
  },
  "userdoc": {
    "methods": {}
  }
}